{
  "contractName": "Kryptobird",
  "abi": [
    {
      "inputs": [],
      "stateMutability": "nonpayable",
      "type": "constructor"
    },
    {
      "anonymous": false,
      "inputs": [
        {
          "indexed": true,
          "internalType": "address",
          "name": "from",
          "type": "address"
        },
        {
          "indexed": true,
          "internalType": "address",
          "name": "to",
          "type": "address"
        },
        {
          "indexed": true,
          "internalType": "uint256",
          "name": "tokenId",
          "type": "uint256"
        }
      ],
      "name": "Transfer",
      "type": "event"
    },
    {
      "inputs": [
        {
          "internalType": "uint256",
          "name": "",
          "type": "uint256"
        }
      ],
      "name": "kryptoBirdz",
      "outputs": [
        {
          "internalType": "string",
          "name": "",
          "type": "string"
        }
      ],
      "stateMutability": "view",
      "type": "function",
      "constant": true
    },
    {
      "inputs": [],
      "name": "name",
      "outputs": [
        {
          "internalType": "string",
          "name": "",
          "type": "string"
        }
      ],
      "stateMutability": "view",
      "type": "function",
      "constant": true
    },
    {
      "inputs": [],
      "name": "symbol",
      "outputs": [
        {
          "internalType": "string",
          "name": "",
          "type": "string"
        }
      ],
      "stateMutability": "view",
      "type": "function",
      "constant": true
    },
    {
      "inputs": [
        {
          "internalType": "string",
          "name": "_kryptoBird",
          "type": "string"
        }
      ],
      "name": "mint",
      "outputs": [],
      "stateMutability": "nonpayable",
      "type": "function"
    }
  ],
  "bytecode": "0x60806040523480156200001157600080fd5b506040518060400160405280600a81526020017f4b727970746f42697264000000000000000000000000000000000000000000008152506040518060400160405280600681526020017f4b424952445a00000000000000000000000000000000000000000000000000008152508181816000908051906020019062000098929190620000bc565b508060019080519060200190620000b1929190620000bc565b5050505050620001d1565b828054620000ca906200016c565b90600052602060002090601f016020900481019282620000ee57600085556200013a565b82601f106200010957805160ff19168380011785556200013a565b828001600101855582156200013a579182015b82811115620001395782518255916020019190600101906200011c565b5b5090506200014991906200014d565b5090565b5b80821115620001685760008160009055506001016200014e565b5090565b600060028204905060018216806200018557607f821691505b602082108114156200019c576200019b620001a2565b5b50919050565b7f4e487b7100000000000000000000000000000000000000000000000000000000600052602260045260246000fd5b610bce80620001e16000396000f3fe608060405234801561001057600080fd5b506004361061004c5760003560e01c806306fdde031461005157806393ab6e561461006f57806395d89b411461009f578063d85d3d27146100bd575b600080fd5b6100596100d9565b60405161006691906108d1565b60405180910390f35b61008960048036038101906100849190610741565b61016b565b60405161009691906108d1565b60405180910390f35b6100a7610217565b6040516100b491906108d1565b60405180910390f35b6100d760048036038101906100d29190610700565b6102a9565b005b6060600080546100e890610ab1565b80601f016020809104026020016040519081016040528092919081815260200182805461011490610ab1565b80156101615780601f1061013657610100808354040283529160200191610161565b820191906000526020600020905b81548152906001019060200180831161014457829003601f168201915b5050505050905090565b6004818154811061017b57600080fd5b90600052602060002001600091509050805461019690610ab1565b80601f01602080910402602001604051908101604052809291908181526020018280546101c290610ab1565b801561020f5780601f106101e45761010080835404028352916020019161020f565b820191906000526020600020905b8154815290600101906020018083116101f257829003601f168201915b505050505081565b60606001805461022690610ab1565b80601f016020809104026020016040519081016040528092919081815260200182805461025290610ab1565b801561029f5780601f106102745761010080835404028352916020019161029f565b820191906000526020600020905b81548152906001019060200180831161028257829003601f168201915b5050505050905090565b6005816040516102b991906108ba565b908152602001604051809103902060009054906101000a900460ff1615610315576040517f08c379a000000000000000000000000000000000000000000000000000000000815260040161030c90610913565b60405180910390fd5b6004819080600181540180825580915050600190039060005260206000200160009091909190915090805190602001906103509291906105e0565b50600060016004805490506103659190610a31565b905061037133826103ac565b600160058360405161038391906108ba565b908152602001604051809103902060006101000a81548160ff0219169083151502179055505050565b600073ffffffffffffffffffffffffffffffffffffffff168273ffffffffffffffffffffffffffffffffffffffff16141561041c576040517f08c379a000000000000000000000000000000000000000000000000000000000815260040161041390610933565b60405180910390fd5b6104258161056e565b15610465576040517f08c379a000000000000000000000000000000000000000000000000000000000815260040161045c906108f3565b60405180910390fd5b816002600083815260200190815260200160002060006101000a81548173ffffffffffffffffffffffffffffffffffffffff021916908373ffffffffffffffffffffffffffffffffffffffff1602179055506001600360008473ffffffffffffffffffffffffffffffffffffffff1673ffffffffffffffffffffffffffffffffffffffff168152602001908152602001600020600082825461050791906109db565b92505081905550808273ffffffffffffffffffffffffffffffffffffffff16600073ffffffffffffffffffffffffffffffffffffffff167fddf252ad1be2c89b69c2b068fc378daa952ba7f163c4a11628f55a4df523b3ef60405160405180910390a45050565b6000806002600084815260200190815260200160002060009054906101000a900473ffffffffffffffffffffffffffffffffffffffff169050600073ffffffffffffffffffffffffffffffffffffffff168173ffffffffffffffffffffffffffffffffffffffff161415915050919050565b8280546105ec90610ab1565b90600052602060002090601f01602090048101928261060e5760008555610655565b82601f1061062757805160ff1916838001178555610655565b82800160010185558215610655579182015b82811115610654578251825591602001919060010190610639565b5b5090506106629190610666565b5090565b5b8082111561067f576000816000905550600101610667565b5090565b600061069661069184610984565b610953565b9050828152602081018484840111156106ae57600080fd5b6106b9848285610a6f565b509392505050565b600082601f8301126106d257600080fd5b81356106e2848260208601610683565b91505092915050565b6000813590506106fa81610b81565b92915050565b60006020828403121561071257600080fd5b600082013567ffffffffffffffff81111561072c57600080fd5b610738848285016106c1565b91505092915050565b60006020828403121561075357600080fd5b6000610761848285016106eb565b91505092915050565b6000610775826109b4565b61077f81856109bf565b935061078f818560208601610a7e565b61079881610b70565b840191505092915050565b60006107ae826109b4565b6107b881856109d0565b93506107c8818560208601610a7e565b80840191505092915050565b60006107e1601c836109bf565b91507f4552433732313a20746f6b656e20616c7265616479206d696e746564000000006000830152602082019050919050565b60006108216021836109bf565b91507f4572726f72202d206b727970746f4269726420616c726561647920657869737460008301527f73000000000000000000000000000000000000000000000000000000000000006020830152604082019050919050565b60006108876020836109bf565b91507f4552433732313a206d696e74696e6720746f20746865203020616464726573736000830152602082019050919050565b60006108c682846107a3565b915081905092915050565b600060208201905081810360008301526108eb818461076a565b905092915050565b6000602082019050818103600083015261090c816107d4565b9050919050565b6000602082019050818103600083015261092c81610814565b9050919050565b6000602082019050818103600083015261094c8161087a565b9050919050565b6000604051905081810181811067ffffffffffffffff8211171561097a57610979610b41565b5b8060405250919050565b600067ffffffffffffffff82111561099f5761099e610b41565b5b601f19601f8301169050602081019050919050565b600081519050919050565b600082825260208201905092915050565b600081905092915050565b60006109e682610a65565b91506109f183610a65565b9250827fffffffffffffffffffffffffffffffffffffffffffffffffffffffffffffffff03821115610a2657610a25610ae3565b5b828201905092915050565b6000610a3c82610a65565b9150610a4783610a65565b925082821015610a5a57610a59610ae3565b5b828203905092915050565b6000819050919050565b82818337600083830152505050565b60005b83811015610a9c578082015181840152602081019050610a81565b83811115610aab576000848401525b50505050565b60006002820490506001821680610ac957607f821691505b60208210811415610add57610adc610b12565b5b50919050565b7f4e487b7100000000000000000000000000000000000000000000000000000000600052601160045260246000fd5b7f4e487b7100000000000000000000000000000000000000000000000000000000600052602260045260246000fd5b7f4e487b7100000000000000000000000000000000000000000000000000000000600052604160045260246000fd5b6000601f19601f8301169050919050565b610b8a81610a65565b8114610b9557600080fd5b5056fea264697066735822122064986d5ade5f4bdb01d31d7773a6c813e301deb968eee7b1bcd52a2470e0307664736f6c63430008000033",
  "immutableReferences": {},
  "source": "// SPDX-License-Identifier: MIT\npragma solidity >=0.8.0;\n\nimport './ERC721Connector.sol';\n\n//  erc-721, , ,   \ncontract Kryptobird is ERC721Connector{\n    \n    // array to store our nfts\n    string [] public kryptoBirdz;\n\n    mapping(string => bool) _kryptoBirdzExists;\n\n    function mint(string memory _kryptoBird) public {\n        require(!_kryptoBirdzExists[_kryptoBird],\n        'Error - kryptoBird already exists');\n        \n        kryptoBirdz.push(_kryptoBird);\n         uint _id = kryptoBirdz.length - 1;\n        _mint(msg.sender, _id);\n\n        _kryptoBirdzExists[_kryptoBird] = true;\n    }\n   \n    constructor() ERC721Connector('KryptoBird','KBIRDZ'){\n        \n    }\n\n    \n}",
  "sourcePath": "/Users/hyunwoo/Desktop/nft-marketplace-starter-kit-main/src/contracts/KryptoBirdz.sol",
  "compiler": {
    "name": "solc",
    "version": "0.8.0+commit.c7dfd78e.Emscripten.clang"
  },
  "schemaVersion": "3.4.13",
  "updatedAt": "2023-04-12T15:46:17.740Z",
  "networkType": "ethereum",
  "devdoc": {
    "kind": "dev",
    "methods": {},
    "version": 1
  },
  "userdoc": {
    "kind": "user",
    "methods": {},
    "version": 1
  }
}